{
  "_format": "hh-sol-artifact-1",
  "contractName": "NFTMarketplace",
  "sourceName": "contracts/NFTMarketplace.sol",
  "abi": [
    {
      "inputs": [],
      "stateMutability": "nonpayable",
      "type": "constructor"
    },
    {
      "anonymous": false,
      "inputs": [
        {
          "indexed": true,
          "internalType": "address",
          "name": "owner",
          "type": "address"
        },
        {
          "indexed": true,
          "internalType": "address",
          "name": "approved",
          "type": "address"
        },
        {
          "indexed": true,
          "internalType": "uint256",
          "name": "tokenId",
          "type": "uint256"
        }
      ],
      "name": "Approval",
      "type": "event"
    },
    {
      "anonymous": false,
      "inputs": [
        {
          "indexed": true,
          "internalType": "address",
          "name": "owner",
          "type": "address"
        },
        {
          "indexed": true,
          "internalType": "address",
          "name": "operator",
          "type": "address"
        },
        {
          "indexed": false,
          "internalType": "bool",
          "name": "approved",
          "type": "bool"
        }
      ],
      "name": "ApprovalForAll",
      "type": "event"
    },
    {
      "anonymous": false,
      "inputs": [
        {
          "indexed": false,
          "internalType": "uint256",
          "name": "_fromTokenId",
          "type": "uint256"
        },
        {
          "indexed": false,
          "internalType": "uint256",
          "name": "_toTokenId",
          "type": "uint256"
        }
      ],
      "name": "BatchMetadataUpdate",
      "type": "event"
    },
    {
      "anonymous": false,
      "inputs": [
        {
          "indexed": false,
          "internalType": "uint256",
          "name": "_tokenId",
          "type": "uint256"
        }
      ],
      "name": "MetadataUpdate",
      "type": "event"
    },
    {
      "anonymous": false,
      "inputs": [
        {
          "indexed": true,
          "internalType": "address",
          "name": "from",
          "type": "address"
        },
        {
          "indexed": true,
          "internalType": "address",
          "name": "to",
          "type": "address"
        },
        {
          "indexed": true,
          "internalType": "uint256",
          "name": "tokenId",
          "type": "uint256"
        }
      ],
      "name": "Transfer",
      "type": "event"
    },
    {
      "anonymous": false,
      "inputs": [
        {
          "indexed": true,
          "internalType": "uint256",
          "name": "tokenId",
          "type": "uint256"
        },
        {
          "indexed": false,
          "internalType": "address",
          "name": "seller",
          "type": "address"
        },
        {
          "indexed": false,
          "internalType": "address",
          "name": "owner",
          "type": "address"
        },
        {
          "indexed": false,
          "internalType": "uint256",
          "name": "price",
          "type": "uint256"
        },
        {
          "indexed": false,
          "internalType": "bool",
          "name": "sold",
          "type": "bool"
        }
      ],
      "name": "idMarketItemCreated",
      "type": "event"
    },
    {
      "inputs": [
        {
          "internalType": "address",
          "name": "to",
          "type": "address"
        },
        {
          "internalType": "uint256",
          "name": "tokenId",
          "type": "uint256"
        }
      ],
      "name": "approve",
      "outputs": [],
      "stateMutability": "nonpayable",
      "type": "function"
    },
    {
      "inputs": [
        {
          "internalType": "address",
          "name": "owner",
          "type": "address"
        }
      ],
      "name": "balanceOf",
      "outputs": [
        {
          "internalType": "uint256",
          "name": "",
          "type": "uint256"
        }
      ],
      "stateMutability": "view",
      "type": "function"
    },
    {
      "inputs": [
        {
          "internalType": "uint256",
          "name": "tokenId",
          "type": "uint256"
        }
      ],
      "name": "createMarketSale",
      "outputs": [],
      "stateMutability": "payable",
      "type": "function"
    },
    {
      "inputs": [
        {
          "internalType": "string",
          "name": "tokenURI",
          "type": "string"
        },
        {
          "internalType": "uint256",
          "name": "price",
          "type": "uint256"
        }
      ],
      "name": "createToken",
      "outputs": [
        {
          "internalType": "uint256",
          "name": "",
          "type": "uint256"
        }
      ],
      "stateMutability": "payable",
      "type": "function"
    },
    {
      "inputs": [],
      "name": "fetchItemsListed",
      "outputs": [
        {
          "components": [
            {
              "internalType": "uint256",
              "name": "tokenId",
              "type": "uint256"
            },
            {
              "internalType": "address payable",
              "name": "seller",
              "type": "address"
            },
            {
              "internalType": "address payable",
              "name": "owner",
              "type": "address"
            },
            {
              "internalType": "uint256",
              "name": "price",
              "type": "uint256"
            },
            {
              "internalType": "bool",
              "name": "sold",
              "type": "bool"
            }
          ],
          "internalType": "struct NFTMarketplace.MarketItem[]",
          "name": "",
          "type": "tuple[]"
        }
      ],
      "stateMutability": "view",
      "type": "function"
    },
    {
      "inputs": [],
      "name": "fetchMarketItem",
      "outputs": [
        {
          "components": [
            {
              "internalType": "uint256",
              "name": "tokenId",
              "type": "uint256"
            },
            {
              "internalType": "address payable",
              "name": "seller",
              "type": "address"
            },
            {
              "internalType": "address payable",
              "name": "owner",
              "type": "address"
            },
            {
              "internalType": "uint256",
              "name": "price",
              "type": "uint256"
            },
            {
              "internalType": "bool",
              "name": "sold",
              "type": "bool"
            }
          ],
          "internalType": "struct NFTMarketplace.MarketItem[]",
          "name": "",
          "type": "tuple[]"
        }
      ],
      "stateMutability": "view",
      "type": "function"
    },
    {
      "inputs": [],
      "name": "fetchMyNFT",
      "outputs": [
        {
          "components": [
            {
              "internalType": "uint256",
              "name": "tokenId",
              "type": "uint256"
            },
            {
              "internalType": "address payable",
              "name": "seller",
              "type": "address"
            },
            {
              "internalType": "address payable",
              "name": "owner",
              "type": "address"
            },
            {
              "internalType": "uint256",
              "name": "price",
              "type": "uint256"
            },
            {
              "internalType": "bool",
              "name": "sold",
              "type": "bool"
            }
          ],
          "internalType": "struct NFTMarketplace.MarketItem[]",
          "name": "",
          "type": "tuple[]"
        }
      ],
      "stateMutability": "view",
      "type": "function"
    },
    {
      "inputs": [
        {
          "internalType": "uint256",
          "name": "tokenId",
          "type": "uint256"
        }
      ],
      "name": "getApproved",
      "outputs": [
        {
          "internalType": "address",
          "name": "",
          "type": "address"
        }
      ],
      "stateMutability": "view",
      "type": "function"
    },
    {
      "inputs": [],
      "name": "getListingPrice",
      "outputs": [
        {
          "internalType": "uint256",
          "name": "",
          "type": "uint256"
        }
      ],
      "stateMutability": "view",
      "type": "function"
    },
    {
      "inputs": [
        {
          "internalType": "address",
          "name": "owner",
          "type": "address"
        },
        {
          "internalType": "address",
          "name": "operator",
          "type": "address"
        }
      ],
      "name": "isApprovedForAll",
      "outputs": [
        {
          "internalType": "bool",
          "name": "",
          "type": "bool"
        }
      ],
      "stateMutability": "view",
      "type": "function"
    },
    {
      "inputs": [],
      "name": "name",
      "outputs": [
        {
          "internalType": "string",
          "name": "",
          "type": "string"
        }
      ],
      "stateMutability": "view",
      "type": "function"
    },
    {
      "inputs": [
        {
          "internalType": "uint256",
          "name": "tokenId",
          "type": "uint256"
        }
      ],
      "name": "ownerOf",
      "outputs": [
        {
          "internalType": "address",
          "name": "",
          "type": "address"
        }
      ],
      "stateMutability": "view",
      "type": "function"
    },
    {
      "inputs": [
        {
          "internalType": "uint256",
          "name": "tokenId",
          "type": "uint256"
        },
        {
          "internalType": "uint256",
          "name": "price",
          "type": "uint256"
        }
      ],
      "name": "reSellToken",
      "outputs": [],
      "stateMutability": "payable",
      "type": "function"
    },
    {
      "inputs": [
        {
          "internalType": "address",
          "name": "from",
          "type": "address"
        },
        {
          "internalType": "address",
          "name": "to",
          "type": "address"
        },
        {
          "internalType": "uint256",
          "name": "tokenId",
          "type": "uint256"
        }
      ],
      "name": "safeTransferFrom",
      "outputs": [],
      "stateMutability": "nonpayable",
      "type": "function"
    },
    {
      "inputs": [
        {
          "internalType": "address",
          "name": "from",
          "type": "address"
        },
        {
          "internalType": "address",
          "name": "to",
          "type": "address"
        },
        {
          "internalType": "uint256",
          "name": "tokenId",
          "type": "uint256"
        },
        {
          "internalType": "bytes",
          "name": "data",
          "type": "bytes"
        }
      ],
      "name": "safeTransferFrom",
      "outputs": [],
      "stateMutability": "nonpayable",
      "type": "function"
    },
    {
      "inputs": [
        {
          "internalType": "address",
          "name": "operator",
          "type": "address"
        },
        {
          "internalType": "bool",
          "name": "approved",
          "type": "bool"
        }
      ],
      "name": "setApprovalForAll",
      "outputs": [],
      "stateMutability": "nonpayable",
      "type": "function"
    },
    {
      "inputs": [
        {
          "internalType": "bytes4",
          "name": "interfaceId",
          "type": "bytes4"
        }
      ],
      "name": "supportsInterface",
      "outputs": [
        {
          "internalType": "bool",
          "name": "",
          "type": "bool"
        }
      ],
      "stateMutability": "view",
      "type": "function"
    },
    {
      "inputs": [],
      "name": "symbol",
      "outputs": [
        {
          "internalType": "string",
          "name": "",
          "type": "string"
        }
      ],
      "stateMutability": "view",
      "type": "function"
    },
    {
      "inputs": [
        {
          "internalType": "uint256",
          "name": "tokenId",
          "type": "uint256"
        }
      ],
      "name": "tokenURI",
      "outputs": [
        {
          "internalType": "string",
          "name": "",
          "type": "string"
        }
      ],
      "stateMutability": "view",
      "type": "function"
    },
    {
      "inputs": [
        {
          "internalType": "address",
          "name": "from",
          "type": "address"
        },
        {
          "internalType": "address",
          "name": "to",
          "type": "address"
        },
        {
          "internalType": "uint256",
          "name": "tokenId",
          "type": "uint256"
        }
      ],
      "name": "transferFrom",
      "outputs": [],
      "stateMutability": "nonpayable",
      "type": "function"
    },
    {
      "inputs": [
        {
          "internalType": "uint256",
          "name": "_listingPrice",
          "type": "uint256"
        }
      ],
      "name": "updateListingPrice",
      "outputs": [],
      "stateMutability": "payable",
      "type": "function"
    }
  ],
  "bytecode": "0x6080604052650da475abf0006009553480156200001b57600080fd5b506040518060400160405280601381526020017f4e4654204d657461766572736520546f6b656e000000000000000000000000008152506040518060400160405280600581526020017f4d594e4654000000000000000000000000000000000000000000000000000000815250816000908162000099919062000354565b508060019081620000ab919062000354565b5050503373ffffffffffffffffffffffffffffffffffffffff16600a60009054906101000a905050506200043b565b600081519050919050565b7f4e487b7100000000000000000000000000000000000000000000000000000000600052604160045260246000fd5b7f4e487b7100000000000000000000000000000000000000000000000000000000600052602260045260246000fd5b600060028204905060018216806200015c57607f821691505b60208210810362000172576200017162000114565b5b50919050565b60008190508160005260206000209050919050565b60006020601f8301049050919050565b600082821b905092915050565b600060088302620001dc7fffffffffffffffffffffffffffffffffffffffffffffffffffffffffffffffff826200019d565b620001e886836200019d565b95508019841693508086168417925050509392505050565b6000819050919050565b6000819050919050565b6000620002356200022f620002298462000200565b6200020a565b62000200565b9050919050565b6000819050919050565b620002518362000214565b6200026962000260826200023c565b848454620001aa565b825550505050565b600090565b6200028062000271565b6200028d81848462000246565b505050565b5b81811015620002b557620002a960008262000276565b60018101905062000293565b5050565b601f8211156200030457620002ce8162000178565b620002d9846200018d565b81016020851015620002e9578190505b62000301620002f8856200018d565b83018262000292565b50505b505050565b600082821c905092915050565b6000620003296000198460080262000309565b1980831691505092915050565b600062000344838362000316565b9150826002028217905092915050565b6200035f82620000da565b67ffffffffffffffff8111156200037b576200037a620000e5565b5b62000387825462000143565b62000394828285620002b9565b600060209050601f831160018114620003cc5760008415620003b7578287015190505b620003c3858262000336565b86555062000433565b601f198416620003dc8662000178565b60005b828110156200040657848901518255600182019150602085019450602081019050620003df565b8683101562000426578489015162000422601f89168262000316565b8355505b6001600288020188555050505b505050505050565b6142d1806200044b6000396000f3fe60806040526004361061012a5760003560e01c806372b3b620116100ab578063ae677aa31161006f578063ae677aa3146103ea578063b88d4fde14610406578063be9af5361461042f578063c18763f71461044b578063c87b56dd14610476578063e985e9c5146104b35761012a565b806372b3b6201461031f57806385535b251461034f5780638fafd0211461036b57806395d89b4114610396578063a22cb465146103c15761012a565b806323b872dd116100f257806323b872dd1461022857806342842e0e1461025157806345f8fa801461027a5780636352211e146102a557806370a08231146102e25761012a565b806301ffc9a71461012f57806306fdde031461016c578063081812fc14610197578063095ea7b3146101d457806312e85585146101fd575b600080fd5b34801561013b57600080fd5b5061015660048036038101906101519190612b71565b6104f0565b6040516101639190612bb9565b60405180910390f35b34801561017857600080fd5b50610181610551565b60405161018e9190612c64565b60405180910390f35b3480156101a357600080fd5b506101be60048036038101906101b99190612cbc565b6105e3565b6040516101cb9190612d2a565b60405180910390f35b3480156101e057600080fd5b506101fb60048036038101906101f69190612d71565b610629565b005b34801561020957600080fd5b50610212610740565b60405161021f9190612dc0565b60405180910390f35b34801561023457600080fd5b5061024f600480360381019061024a9190612ddb565b61074a565b005b34801561025d57600080fd5b5061027860048036038101906102739190612ddb565b6107aa565b005b34801561028657600080fd5b5061028f6107ca565b60405161029c9190612f84565b60405180910390f35b3480156102b157600080fd5b506102cc60048036038101906102c79190612cbc565b610aaa565b6040516102d99190612d2a565b60405180910390f35b3480156102ee57600080fd5b5061030960048036038101906103049190612fa6565b610b30565b6040516103169190612dc0565b60405180910390f35b61033960048036038101906103349190613108565b610be7565b6040516103469190612dc0565b60405180910390f35b61036960048036038101906103649190613164565b610c29565b005b34801561037757600080fd5b50610380610e1e565b60405161038d9190612f84565b60405180910390f35b3480156103a257600080fd5b506103ab611080565b6040516103b89190612c64565b60405180910390f35b3480156103cd57600080fd5b506103e860048036038101906103e391906131d0565b611112565b005b61040460048036038101906103ff9190612cbc565b611128565b005b34801561041257600080fd5b5061042d600480360381019061042891906132b1565b6111c2565b005b61044960048036038101906104449190612cbc565b611224565b005b34801561045757600080fd5b5061046061145c565b60405161046d9190612f84565b60405180910390f35b34801561048257600080fd5b5061049d60048036038101906104989190612cbc565b61173c565b6040516104aa9190612c64565b60405180910390f35b3480156104bf57600080fd5b506104da60048036038101906104d59190613334565b61184e565b6040516104e79190612bb9565b60405180910390f35b6000634906490660e01b7bffffffffffffffffffffffffffffffffffffffffffffffffffffffff1916827bffffffffffffffffffffffffffffffffffffffffffffffffffffffff1916148061054a5750610549826118e2565b5b9050919050565b606060008054610560906133a3565b80601f016020809104026020016040519081016040528092919081815260200182805461058c906133a3565b80156105d95780601f106105ae576101008083540402835291602001916105d9565b820191906000526020600020905b8154815290600101906020018083116105bc57829003601f168201915b5050505050905090565b60006105ee826119c4565b6004600083815260200190815260200160002060009054906101000a900473ffffffffffffffffffffffffffffffffffffffff169050919050565b600061063482610aaa565b90508073ffffffffffffffffffffffffffffffffffffffff168373ffffffffffffffffffffffffffffffffffffffff16036106a4576040517f08c379a000000000000000000000000000000000000000000000000000000000815260040161069b90613446565b60405180910390fd5b8073ffffffffffffffffffffffffffffffffffffffff166106c3611a0f565b73ffffffffffffffffffffffffffffffffffffffff1614806106f257506106f1816106ec611a0f565b61184e565b5b610731576040517f08c379a0000000000000000000000000000000000000000000000000000000008152600401610728906134d8565b60405180910390fd5b61073b8383611a17565b505050565b6000600954905090565b61075b610755611a0f565b82611ad0565b61079a576040517f08c379a00000000000000000000000000000000000000000000000000000000081526004016107919061356a565b60405180910390fd5b6107a5838383611b65565b505050565b6107c5838383604051806020016040528060008152506111c2565b505050565b606060006107d86007611e5e565b905060008060005b8381101561087a573373ffffffffffffffffffffffffffffffffffffffff16600b600060018461081091906135b9565b815260200190815260200160002060010160009054906101000a900473ffffffffffffffffffffffffffffffffffffffff1673ffffffffffffffffffffffffffffffffffffffff160361086d5760018361086a91906135b9565b92505b80806001019150506107e0565b5060008267ffffffffffffffff81111561089757610896612fdd565b5b6040519080825280602002602001820160405280156108d057816020015b6108bd612aa8565b8152602001906001900390816108b55790505b50905060005b84811015610a9f573373ffffffffffffffffffffffffffffffffffffffff16600b600060018461090691906135b9565b815260200190815260200160002060010160009054906101000a900473ffffffffffffffffffffffffffffffffffffffff1673ffffffffffffffffffffffffffffffffffffffff1603610a9257600060018261096291906135b9565b90506000600b60008381526020019081526020016000209050806040518060a0016040529081600082015481526020016001820160009054906101000a900473ffffffffffffffffffffffffffffffffffffffff1673ffffffffffffffffffffffffffffffffffffffff1673ffffffffffffffffffffffffffffffffffffffff1681526020016002820160009054906101000a900473ffffffffffffffffffffffffffffffffffffffff1673ffffffffffffffffffffffffffffffffffffffff1673ffffffffffffffffffffffffffffffffffffffff168152602001600382015481526020016004820160009054906101000a900460ff161515151581525050848681518110610a7557610a746135ed565b5b6020026020010181905250600185610a8d91906135b9565b945050505b80806001019150506108d6565b508094505050505090565b600080610ab683611e6c565b9050600073ffffffffffffffffffffffffffffffffffffffff168173ffffffffffffffffffffffffffffffffffffffff1603610b27576040517f08c379a0000000000000000000000000000000000000000000000000000000008152600401610b1e90613668565b60405180910390fd5b80915050919050565b60008073ffffffffffffffffffffffffffffffffffffffff168273ffffffffffffffffffffffffffffffffffffffff1603610ba0576040517f08c379a0000000000000000000000000000000000000000000000000000000008152600401610b97906136fa565b60405180910390fd5b600360008373ffffffffffffffffffffffffffffffffffffffff1673ffffffffffffffffffffffffffffffffffffffff168152602001908152602001600020549050919050565b6000610bf36007611ea9565b6000610bff6007611e5e565b9050610c0b3382611ebf565b610c1581856120dc565b610c1f8184612180565b8091505092915050565b3373ffffffffffffffffffffffffffffffffffffffff16600b600084815260200190815260200160002060020160009054906101000a900473ffffffffffffffffffffffffffffffffffffffff1673ffffffffffffffffffffffffffffffffffffffff1614610ccd576040517f08c379a0000000000000000000000000000000000000000000000000000000008152600401610cc49061378c565b60405180910390fd5b6009543414610d11576040517f08c379a0000000000000000000000000000000000000000000000000000000008152600401610d089061381e565b60405180910390fd5b6000600b600084815260200190815260200160002060040160006101000a81548160ff02191690831515021790555080600b60008481526020019081526020016000206003018190555033600b600084815260200190815260200160002060010160006101000a81548173ffffffffffffffffffffffffffffffffffffffff021916908373ffffffffffffffffffffffffffffffffffffffff16021790555030600b600084815260200190815260200160002060020160006101000a81548173ffffffffffffffffffffffffffffffffffffffff021916908373ffffffffffffffffffffffffffffffffffffffff160217905550610e0f6008612383565b610e1a333084611b65565b5050565b60606000610e2c6007611e5e565b90506000610e3a6008611e5e565b610e446007611e5e565b610e4e919061383e565b90506000808267ffffffffffffffff811115610e6d57610e6c612fdd565b5b604051908082528060200260200182016040528015610ea657816020015b610e93612aa8565b815260200190600190039081610e8b5790505b50905060005b84811015611075573073ffffffffffffffffffffffffffffffffffffffff16600b6000600184610edc91906135b9565b815260200190815260200160002060020160009054906101000a900473ffffffffffffffffffffffffffffffffffffffff1673ffffffffffffffffffffffffffffffffffffffff1603611068576000600182610f3891906135b9565b90506000600b60008381526020019081526020016000209050806040518060a0016040529081600082015481526020016001820160009054906101000a900473ffffffffffffffffffffffffffffffffffffffff1673ffffffffffffffffffffffffffffffffffffffff1673ffffffffffffffffffffffffffffffffffffffff1681526020016002820160009054906101000a900473ffffffffffffffffffffffffffffffffffffffff1673ffffffffffffffffffffffffffffffffffffffff1673ffffffffffffffffffffffffffffffffffffffff168152602001600382015481526020016004820160009054906101000a900460ff16151515158152505084868151811061104b5761104a6135ed565b5b602002602001018190525060018561106391906135b9565b945050505b8080600101915050610eac565b508094505050505090565b60606001805461108f906133a3565b80601f01602080910402602001604051908101604052809291908181526020018280546110bb906133a3565b80156111085780601f106110dd57610100808354040283529160200191611108565b820191906000526020600020905b8154815290600101906020018083116110eb57829003601f168201915b5050505050905090565b61112461111d611a0f565b83836123df565b5050565b600a60009054906101000a900473ffffffffffffffffffffffffffffffffffffffff1673ffffffffffffffffffffffffffffffffffffffff163373ffffffffffffffffffffffffffffffffffffffff16146111b8576040517f08c379a00000000000000000000000000000000000000000000000000000000081526004016111af906138e4565b60405180910390fd5b8060098190555050565b6111d36111cd611a0f565b83611ad0565b611212576040517f08c379a00000000000000000000000000000000000000000000000000000000081526004016112099061356a565b60405180910390fd5b61121e8484848461254b565b50505050565b6000600b6000838152602001908152602001600020600301549050803414611281576040517f08c379a000000000000000000000000000000000000000000000000000000000815260040161127890613976565b60405180910390fd5b33600b600084815260200190815260200160002060020160006101000a81548173ffffffffffffffffffffffffffffffffffffffff021916908373ffffffffffffffffffffffffffffffffffffffff1602179055506001600b600084815260200190815260200160002060040160006101000a81548160ff0219169083151502179055506000600b600084815260200190815260200160002060020160006101000a81548173ffffffffffffffffffffffffffffffffffffffff021916908373ffffffffffffffffffffffffffffffffffffffff1602179055506113656008611ea9565b611370303384611b65565b600a60009054906101000a900473ffffffffffffffffffffffffffffffffffffffff1673ffffffffffffffffffffffffffffffffffffffff166108fc6009549081150290604051600060405180830381858888f193505050501580156113da573d6000803e3d6000fd5b50600b600083815260200190815260200160002060010160009054906101000a900473ffffffffffffffffffffffffffffffffffffffff1673ffffffffffffffffffffffffffffffffffffffff166108fc349081150290604051600060405180830381858888f19350505050158015611457573d6000803e3d6000fd5b505050565b6060600061146a6007611e5e565b905060008060005b8381101561150c573373ffffffffffffffffffffffffffffffffffffffff16600b60006001846114a291906135b9565b815260200190815260200160002060020160009054906101000a900473ffffffffffffffffffffffffffffffffffffffff1673ffffffffffffffffffffffffffffffffffffffff16036114ff576001836114fc91906135b9565b92505b8080600101915050611472565b5060008267ffffffffffffffff81111561152957611528612fdd565b5b60405190808252806020026020018201604052801561156257816020015b61154f612aa8565b8152602001906001900390816115475790505b50905060005b84811015611731573373ffffffffffffffffffffffffffffffffffffffff16600b600060018461159891906135b9565b815260200190815260200160002060020160009054906101000a900473ffffffffffffffffffffffffffffffffffffffff1673ffffffffffffffffffffffffffffffffffffffff16036117245760006001826115f491906135b9565b90506000600b60008381526020019081526020016000209050806040518060a0016040529081600082015481526020016001820160009054906101000a900473ffffffffffffffffffffffffffffffffffffffff1673ffffffffffffffffffffffffffffffffffffffff1673ffffffffffffffffffffffffffffffffffffffff1681526020016002820160009054906101000a900473ffffffffffffffffffffffffffffffffffffffff1673ffffffffffffffffffffffffffffffffffffffff1673ffffffffffffffffffffffffffffffffffffffff168152602001600382015481526020016004820160009054906101000a900460ff161515151581525050848681518110611707576117066135ed565b5b602002602001018190525060018561171f91906135b9565b945050505b8080600101915050611568565b508094505050505090565b6060611747826119c4565b6000600660008481526020019081526020016000208054611767906133a3565b80601f0160208091040260200160405190810160405280929190818152602001828054611793906133a3565b80156117e05780601f106117b5576101008083540402835291602001916117e0565b820191906000526020600020905b8154815290600101906020018083116117c357829003601f168201915b5050505050905060006117f16125a7565b90506000815103611806578192505050611849565b60008251111561183b5780826040516020016118239291906139d2565b60405160208183030381529060405292505050611849565b611844846125be565b925050505b919050565b6000600560008473ffffffffffffffffffffffffffffffffffffffff1673ffffffffffffffffffffffffffffffffffffffff16815260200190815260200160002060008373ffffffffffffffffffffffffffffffffffffffff1673ffffffffffffffffffffffffffffffffffffffff16815260200190815260200160002060009054906101000a900460ff16905092915050565b60007f80ac58cd000000000000000000000000000000000000000000000000000000007bffffffffffffffffffffffffffffffffffffffffffffffffffffffff1916827bffffffffffffffffffffffffffffffffffffffffffffffffffffffff191614806119ad57507f5b5e139f000000000000000000000000000000000000000000000000000000007bffffffffffffffffffffffffffffffffffffffffffffffffffffffff1916827bffffffffffffffffffffffffffffffffffffffffffffffffffffffff1916145b806119bd57506119bc82612626565b5b9050919050565b6119cd81612690565b611a0c576040517f08c379a0000000000000000000000000000000000000000000000000000000008152600401611a0390613668565b60405180910390fd5b50565b600033905090565b816004600083815260200190815260200160002060006101000a81548173ffffffffffffffffffffffffffffffffffffffff021916908373ffffffffffffffffffffffffffffffffffffffff160217905550808273ffffffffffffffffffffffffffffffffffffffff16611a8a83610aaa565b73ffffffffffffffffffffffffffffffffffffffff167f8c5be1e5ebec7d5bd14f71427d1e84f3dd0314c0f7b2291e5b200ac8c7c3b92560405160405180910390a45050565b600080611adc83610aaa565b90508073ffffffffffffffffffffffffffffffffffffffff168473ffffffffffffffffffffffffffffffffffffffff161480611b1e5750611b1d818561184e565b5b80611b5c57508373ffffffffffffffffffffffffffffffffffffffff16611b44846105e3565b73ffffffffffffffffffffffffffffffffffffffff16145b91505092915050565b8273ffffffffffffffffffffffffffffffffffffffff16611b8582610aaa565b73ffffffffffffffffffffffffffffffffffffffff1614611bdb576040517f08c379a0000000000000000000000000000000000000000000000000000000008152600401611bd290613a68565b60405180910390fd5b600073ffffffffffffffffffffffffffffffffffffffff168273ffffffffffffffffffffffffffffffffffffffff1603611c4a576040517f08c379a0000000000000000000000000000000000000000000000000000000008152600401611c4190613afa565b60405180910390fd5b611c5783838360016126d1565b8273ffffffffffffffffffffffffffffffffffffffff16611c7782610aaa565b73ffffffffffffffffffffffffffffffffffffffff1614611ccd576040517f08c379a0000000000000000000000000000000000000000000000000000000008152600401611cc490613a68565b60405180910390fd5b6004600082815260200190815260200160002060006101000a81549073ffffffffffffffffffffffffffffffffffffffff02191690556001600360008573ffffffffffffffffffffffffffffffffffffffff1673ffffffffffffffffffffffffffffffffffffffff168152602001908152602001600020600082825403925050819055506001600360008473ffffffffffffffffffffffffffffffffffffffff1673ffffffffffffffffffffffffffffffffffffffff16815260200190815260200160002060008282540192505081905550816002600083815260200190815260200160002060006101000a81548173ffffffffffffffffffffffffffffffffffffffff021916908373ffffffffffffffffffffffffffffffffffffffff160217905550808273ffffffffffffffffffffffffffffffffffffffff168473ffffffffffffffffffffffffffffffffffffffff167fddf252ad1be2c89b69c2b068fc378daa952ba7f163c4a11628f55a4df523b3ef60405160405180910390a4611e5983838360016126d7565b505050565b600081600001549050919050565b60006002600083815260200190815260200160002060009054906101000a900473ffffffffffffffffffffffffffffffffffffffff169050919050565b6001816000016000828254019250508190555050565b600073ffffffffffffffffffffffffffffffffffffffff168273ffffffffffffffffffffffffffffffffffffffff1603611f2e576040517f08c379a0000000000000000000000000000000000000000000000000000000008152600401611f2590613b66565b60405180910390fd5b611f3781612690565b15611f77576040517f08c379a0000000000000000000000000000000000000000000000000000000008152600401611f6e90613bd2565b60405180910390fd5b611f856000838360016126d1565b611f8e81612690565b15611fce576040517f08c379a0000000000000000000000000000000000000000000000000000000008152600401611fc590613bd2565b60405180910390fd5b6001600360008473ffffffffffffffffffffffffffffffffffffffff1673ffffffffffffffffffffffffffffffffffffffff16815260200190815260200160002060008282540192505081905550816002600083815260200190815260200160002060006101000a81548173ffffffffffffffffffffffffffffffffffffffff021916908373ffffffffffffffffffffffffffffffffffffffff160217905550808273ffffffffffffffffffffffffffffffffffffffff16600073ffffffffffffffffffffffffffffffffffffffff167fddf252ad1be2c89b69c2b068fc378daa952ba7f163c4a11628f55a4df523b3ef60405160405180910390a46120d86000838360016126d7565b5050565b6120e582612690565b612124576040517f08c379a000000000000000000000000000000000000000000000000000000000815260040161211b90613c64565b60405180910390fd5b806006600084815260200190815260200160002090816121449190613e30565b507ff8e1a15aba9398e019f0b49df1a4fde98ee17ae345cb5f6b5e2c27f5033e8ce7826040516121749190612dc0565b60405180910390a15050565b600081116121c3576040517f08c379a00000000000000000000000000000000000000000000000000000000081526004016121ba90613f4e565b60405180910390fd5b6009543414612207576040517f08c379a00000000000000000000000000000000000000000000000000000000081526004016121fe90613fba565b60405180910390fd5b6040518060a001604052808381526020013373ffffffffffffffffffffffffffffffffffffffff1681526020013073ffffffffffffffffffffffffffffffffffffffff16815260200182815260200160001515815250600b60008481526020019081526020016000206000820151816000015560208201518160010160006101000a81548173ffffffffffffffffffffffffffffffffffffffff021916908373ffffffffffffffffffffffffffffffffffffffff16021790555060408201518160020160006101000a81548173ffffffffffffffffffffffffffffffffffffffff021916908373ffffffffffffffffffffffffffffffffffffffff1602179055506060820151816003015560808201518160040160006101000a81548160ff021916908315150217905550905050612340333084611b65565b817fdebdb32cb5230ab727c9c361b16fdb2015df225c10e6a3e7f60ecd5dc5be451633308460006040516123779493929190613fda565b60405180910390a25050565b600081600001549050600081116123cf576040517f08c379a00000000000000000000000000000000000000000000000000000000081526004016123c69061406b565b60405180910390fd5b6001810382600001819055505050565b8173ffffffffffffffffffffffffffffffffffffffff168373ffffffffffffffffffffffffffffffffffffffff160361244d576040517f08c379a0000000000000000000000000000000000000000000000000000000008152600401612444906140d7565b60405180910390fd5b80600560008573ffffffffffffffffffffffffffffffffffffffff1673ffffffffffffffffffffffffffffffffffffffff16815260200190815260200160002060008473ffffffffffffffffffffffffffffffffffffffff1673ffffffffffffffffffffffffffffffffffffffff16815260200190815260200160002060006101000a81548160ff0219169083151502179055508173ffffffffffffffffffffffffffffffffffffffff168373ffffffffffffffffffffffffffffffffffffffff167f17307eab39ab6107e8899845ad3d59bd9653f200f220920489ca2b5937696c318360405161253e9190612bb9565b60405180910390a3505050565b612556848484611b65565b612562848484846126dd565b6125a1576040517f08c379a000000000000000000000000000000000000000000000000000000000815260040161259890614169565b60405180910390fd5b50505050565b606060405180602001604052806000815250905090565b60606125c9826119c4565b60006125d36125a7565b905060008151116125f3576040518060200160405280600081525061261e565b806125fd84612864565b60405160200161260e9291906139d2565b6040516020818303038152906040525b915050919050565b60007f01ffc9a7000000000000000000000000000000000000000000000000000000007bffffffffffffffffffffffffffffffffffffffffffffffffffffffff1916827bffffffffffffffffffffffffffffffffffffffffffffffffffffffff1916149050919050565b60008073ffffffffffffffffffffffffffffffffffffffff166126b283611e6c565b73ffffffffffffffffffffffffffffffffffffffff1614159050919050565b50505050565b50505050565b60006126fe8473ffffffffffffffffffffffffffffffffffffffff16612932565b15612857578373ffffffffffffffffffffffffffffffffffffffff1663150b7a02612727611a0f565b8786866040518563ffffffff1660e01b815260040161274994939291906141de565b6020604051808303816000875af192505050801561278557506040513d601f19601f82011682018060405250810190612782919061423f565b60015b612807573d80600081146127b5576040519150601f19603f3d011682016040523d82523d6000602084013e6127ba565b606091505b5060008151036127ff576040517f08c379a00000000000000000000000000000000000000000000000000000000081526004016127f690614169565b60405180910390fd5b805181602001fd5b63150b7a0260e01b7bffffffffffffffffffffffffffffffffffffffffffffffffffffffff1916817bffffffffffffffffffffffffffffffffffffffffffffffffffffffff19161491505061285c565b600190505b949350505050565b60606000600161287384612955565b01905060008167ffffffffffffffff81111561289257612891612fdd565b5b6040519080825280601f01601f1916602001820160405280156128c45781602001600182028036833780820191505090505b509050600082602001820190505b600115612927578080600190039150507f3031323334353637383961626364656600000000000000000000000000000000600a86061a8153600a858161291b5761291a61426c565b5b049450600085036128d2575b819350505050919050565b6000808273ffffffffffffffffffffffffffffffffffffffff163b119050919050565b600080600090507a184f03e93ff9f4daa797ed6e38ed64bf6a1f01000000000000000083106129b3577a184f03e93ff9f4daa797ed6e38ed64bf6a1f01000000000000000083816129a9576129a861426c565b5b0492506040810190505b6d04ee2d6d415b85acef810000000083106129f0576d04ee2d6d415b85acef810000000083816129e6576129e561426c565b5b0492506020810190505b662386f26fc100008310612a1f57662386f26fc100008381612a1557612a1461426c565b5b0492506010810190505b6305f5e1008310612a48576305f5e1008381612a3e57612a3d61426c565b5b0492506008810190505b6127108310612a6d576127108381612a6357612a6261426c565b5b0492506004810190505b60648310612a905760648381612a8657612a8561426c565b5b0492506002810190505b600a8310612a9f576001810190505b80915050919050565b6040518060a0016040528060008152602001600073ffffffffffffffffffffffffffffffffffffffff168152602001600073ffffffffffffffffffffffffffffffffffffffff168152602001600081526020016000151581525090565b6000604051905090565b600080fd5b600080fd5b60007fffffffff0000000000000000000000000000000000000000000000000000000082169050919050565b612b4e81612b19565b8114612b5957600080fd5b50565b600081359050612b6b81612b45565b92915050565b600060208284031215612b8757612b86612b0f565b5b6000612b9584828501612b5c565b91505092915050565b60008115159050919050565b612bb381612b9e565b82525050565b6000602082019050612bce6000830184612baa565b92915050565b600081519050919050565b600082825260208201905092915050565b60005b83811015612c0e578082015181840152602081019050612bf3565b60008484015250505050565b6000601f19601f8301169050919050565b6000612c3682612bd4565b612c408185612bdf565b9350612c50818560208601612bf0565b612c5981612c1a565b840191505092915050565b60006020820190508181036000830152612c7e8184612c2b565b905092915050565b6000819050919050565b612c9981612c86565b8114612ca457600080fd5b50565b600081359050612cb681612c90565b92915050565b600060208284031215612cd257612cd1612b0f565b5b6000612ce084828501612ca7565b91505092915050565b600073ffffffffffffffffffffffffffffffffffffffff82169050919050565b6000612d1482612ce9565b9050919050565b612d2481612d09565b82525050565b6000602082019050612d3f6000830184612d1b565b92915050565b612d4e81612d09565b8114612d5957600080fd5b50565b600081359050612d6b81612d45565b92915050565b60008060408385031215612d8857612d87612b0f565b5b6000612d9685828601612d5c565b9250506020612da785828601612ca7565b9150509250929050565b612dba81612c86565b82525050565b6000602082019050612dd56000830184612db1565b92915050565b600080600060608486031215612df457612df3612b0f565b5b6000612e0286828701612d5c565b9350506020612e1386828701612d5c565b9250506040612e2486828701612ca7565b9150509250925092565b600081519050919050565b600082825260208201905092915050565b6000819050602082019050919050565b612e6381612c86565b82525050565b6000612e7482612ce9565b9050919050565b612e8481612e69565b82525050565b612e9381612b9e565b82525050565b60a082016000820151612eaf6000850182612e5a565b506020820151612ec26020850182612e7b565b506040820151612ed56040850182612e7b565b506060820151612ee86060850182612e5a565b506080820151612efb6080850182612e8a565b50505050565b6000612f0d8383612e99565b60a08301905092915050565b6000602082019050919050565b6000612f3182612e2e565b612f3b8185612e39565b9350612f4683612e4a565b8060005b83811015612f77578151612f5e8882612f01565b9750612f6983612f19565b925050600181019050612f4a565b5085935050505092915050565b60006020820190508181036000830152612f9e8184612f26565b905092915050565b600060208284031215612fbc57612fbb612b0f565b5b6000612fca84828501612d5c565b91505092915050565b600080fd5b600080fd5b7f4e487b7100000000000000000000000000000000000000000000000000000000600052604160045260246000fd5b61301582612c1a565b810181811067ffffffffffffffff8211171561303457613033612fdd565b5b80604052505050565b6000613047612b05565b9050613053828261300c565b919050565b600067ffffffffffffffff82111561307357613072612fdd565b5b61307c82612c1a565b9050602081019050919050565b82818337600083830152505050565b60006130ab6130a684613058565b61303d565b9050828152602081018484840111156130c7576130c6612fd8565b5b6130d2848285613089565b509392505050565b600082601f8301126130ef576130ee612fd3565b5b81356130ff848260208601613098565b91505092915050565b6000806040838503121561311f5761311e612b0f565b5b600083013567ffffffffffffffff81111561313d5761313c612b14565b5b613149858286016130da565b925050602061315a85828601612ca7565b9150509250929050565b6000806040838503121561317b5761317a612b0f565b5b600061318985828601612ca7565b925050602061319a85828601612ca7565b9150509250929050565b6131ad81612b9e565b81146131b857600080fd5b50565b6000813590506131ca816131a4565b92915050565b600080604083850312156131e7576131e6612b0f565b5b60006131f585828601612d5c565b9250506020613206858286016131bb565b9150509250929050565b600067ffffffffffffffff82111561322b5761322a612fdd565b5b61323482612c1a565b9050602081019050919050565b600061325461324f84613210565b61303d565b9050828152602081018484840111156132705761326f612fd8565b5b61327b848285613089565b509392505050565b600082601f83011261329857613297612fd3565b5b81356132a8848260208601613241565b91505092915050565b600080600080608085870312156132cb576132ca612b0f565b5b60006132d987828801612d5c565b94505060206132ea87828801612d5c565b93505060406132fb87828801612ca7565b925050606085013567ffffffffffffffff81111561331c5761331b612b14565b5b61332887828801613283565b91505092959194509250565b6000806040838503121561334b5761334a612b0f565b5b600061335985828601612d5c565b925050602061336a85828601612d5c565b9150509250929050565b7f4e487b7100000000000000000000000000000000000000000000000000000000600052602260045260246000fd5b600060028204905060018216806133bb57607f821691505b6020821081036133ce576133cd613374565b5b50919050565b7f4552433732313a20617070726f76616c20746f2063757272656e74206f776e6560008201527f7200000000000000000000000000000000000000000000000000000000000000602082015250565b6000613430602183612bdf565b915061343b826133d4565b604082019050919050565b6000602082019050818103600083015261345f81613423565b9050919050565b7f4552433732313a20617070726f76652063616c6c6572206973206e6f7420746f60008201527f6b656e206f776e6572206f7220617070726f76656420666f7220616c6c000000602082015250565b60006134c2603d83612bdf565b91506134cd82613466565b604082019050919050565b600060208201905081810360008301526134f1816134b5565b9050919050565b7f4552433732313a2063616c6c6572206973206e6f7420746f6b656e206f776e6560008201527f72206f7220617070726f76656400000000000000000000000000000000000000602082015250565b6000613554602d83612bdf565b915061355f826134f8565b604082019050919050565b6000602082019050818103600083015261358381613547565b9050919050565b7f4e487b7100000000000000000000000000000000000000000000000000000000600052601160045260246000fd5b60006135c482612c86565b91506135cf83612c86565b92508282019050808211156135e7576135e661358a565b5b92915050565b7f4e487b7100000000000000000000000000000000000000000000000000000000600052603260045260246000fd5b7f4552433732313a20696e76616c696420746f6b656e2049440000000000000000600082015250565b6000613652601883612bdf565b915061365d8261361c565b602082019050919050565b6000602082019050818103600083015261368181613645565b9050919050565b7f4552433732313a2061646472657373207a65726f206973206e6f74206120766160008201527f6c6964206f776e65720000000000000000000000000000000000000000000000602082015250565b60006136e4602983612bdf565b91506136ef82613688565b604082019050919050565b60006020820190508181036000830152613713816136d7565b9050919050565b7f4f6e6c79204974656d206f776e65722063616e20706572666f726d207468697360008201527f206f7065726174696f6e00000000000000000000000000000000000000000000602082015250565b6000613776602a83612bdf565b91506137818261371a565b604082019050919050565b600060208201905081810360008301526137a581613769565b9050919050565b7f5072696365206d75737420626520657175616c20746f206c697374696e67207060008201527f7269636500000000000000000000000000000000000000000000000000000000602082015250565b6000613808602483612bdf565b9150613813826137ac565b604082019050919050565b60006020820190508181036000830152613837816137fb565b9050919050565b600061384982612c86565b915061385483612c86565b925082820390508181111561386c5761386b61358a565b5b92915050565b7f6f6e6c79206f776e6572206f6620746865206d61726b6574706c61636520636160008201527f6e206368616e676520746865206c697374696e67207072696365000000000000602082015250565b60006138ce603a83612bdf565b91506138d982613872565b604082019050919050565b600060208201905081810360008301526138fd816138c1565b9050919050565b7f506c65617365207375626d6974207468652061736b696e67207072696365206960008201527f6e206f7264657220746f20636f6d706c65746520746865207075726368617365602082015250565b6000613960604083612bdf565b915061396b82613904565b604082019050919050565b6000602082019050818103600083015261398f81613953565b9050919050565b600081905092915050565b60006139ac82612bd4565b6139b68185613996565b93506139c6818560208601612bf0565b80840191505092915050565b60006139de82856139a1565b91506139ea82846139a1565b91508190509392505050565b7f4552433732313a207472616e736665722066726f6d20696e636f72726563742060008201527f6f776e6572000000000000000000000000000000000000000000000000000000602082015250565b6000613a52602583612bdf565b9150613a5d826139f6565b604082019050919050565b60006020820190508181036000830152613a8181613a45565b9050919050565b7f4552433732313a207472616e7366657220746f20746865207a65726f2061646460008201527f7265737300000000000000000000000000000000000000000000000000000000602082015250565b6000613ae4602483612bdf565b9150613aef82613a88565b604082019050919050565b60006020820190508181036000830152613b1381613ad7565b9050919050565b7f4552433732313a206d696e7420746f20746865207a65726f2061646472657373600082015250565b6000613b50602083612bdf565b9150613b5b82613b1a565b602082019050919050565b60006020820190508181036000830152613b7f81613b43565b9050919050565b7f4552433732313a20746f6b656e20616c7265616479206d696e74656400000000600082015250565b6000613bbc601c83612bdf565b9150613bc782613b86565b602082019050919050565b60006020820190508181036000830152613beb81613baf565b9050919050565b7f45524337323155524953746f726167653a2055524920736574206f66206e6f6e60008201527f6578697374656e7420746f6b656e000000000000000000000000000000000000602082015250565b6000613c4e602e83612bdf565b9150613c5982613bf2565b604082019050919050565b60006020820190508181036000830152613c7d81613c41565b9050919050565b60008190508160005260206000209050919050565b60006020601f8301049050919050565b600082821b905092915050565b600060088302613ce67fffffffffffffffffffffffffffffffffffffffffffffffffffffffffffffffff82613ca9565b613cf08683613ca9565b95508019841693508086168417925050509392505050565b6000819050919050565b6000613d2d613d28613d2384612c86565b613d08565b612c86565b9050919050565b6000819050919050565b613d4783613d12565b613d5b613d5382613d34565b848454613cb6565b825550505050565b600090565b613d70613d63565b613d7b818484613d3e565b505050565b5b81811015613d9f57613d94600082613d68565b600181019050613d81565b5050565b601f821115613de457613db581613c84565b613dbe84613c99565b81016020851015613dcd578190505b613de1613dd985613c99565b830182613d80565b50505b505050565b600082821c905092915050565b6000613e0760001984600802613de9565b1980831691505092915050565b6000613e208383613df6565b9150826002028217905092915050565b613e3982612bd4565b67ffffffffffffffff811115613e5257613e51612fdd565b5b613e5c82546133a3565b613e67828285613da3565b600060209050601f831160018114613e9a5760008415613e88578287015190505b613e928582613e14565b865550613efa565b601f198416613ea886613c84565b60005b82811015613ed057848901518255600182019150602085019450602081019050613eab565b86831015613eed5784890151613ee9601f891682613df6565b8355505b6001600288020188555050505b505050505050565b7f5072696365206d757374206265206174206c6561737420310000000000000000600082015250565b6000613f38601883612bdf565b9150613f4382613f02565b602082019050919050565b60006020820190508181036000830152613f6781613f2b565b9050919050565b7f5072696365206d757374206265206c697374696e672070726963650000000000600082015250565b6000613fa4601b83612bdf565b9150613faf82613f6e565b602082019050919050565b60006020820190508181036000830152613fd381613f97565b9050919050565b6000608082019050613fef6000830187612d1b565b613ffc6020830186612d1b565b6140096040830185612db1565b6140166060830184612baa565b95945050505050565b7f436f756e7465723a2064656372656d656e74206f766572666c6f770000000000600082015250565b6000614055601b83612bdf565b91506140608261401f565b602082019050919050565b6000602082019050818103600083015261408481614048565b9050919050565b7f4552433732313a20617070726f766520746f2063616c6c657200000000000000600082015250565b60006140c1601983612bdf565b91506140cc8261408b565b602082019050919050565b600060208201905081810360008301526140f0816140b4565b9050919050565b7f4552433732313a207472616e7366657220746f206e6f6e20455243373231526560008201527f63656976657220696d706c656d656e7465720000000000000000000000000000602082015250565b6000614153603283612bdf565b915061415e826140f7565b604082019050919050565b6000602082019050818103600083015261418281614146565b9050919050565b600081519050919050565b600082825260208201905092915050565b60006141b082614189565b6141ba8185614194565b93506141ca818560208601612bf0565b6141d381612c1a565b840191505092915050565b60006080820190506141f36000830187612d1b565b6142006020830186612d1b565b61420d6040830185612db1565b818103606083015261421f81846141a5565b905095945050505050565b60008151905061423981612b45565b92915050565b60006020828403121561425557614254612b0f565b5b60006142638482850161422a565b91505092915050565b7f4e487b7100000000000000000000000000000000000000000000000000000000600052601260045260246000fdfea264697066735822122053641f4f714eb66d344cd72e68039b196da751c88f8d261d5f1c77e2c3c538e964736f6c63430008180033",
  "linkReferences": {},
  "deployedLinkReferences": {}
}